S00C0000424C44432E7372656303
S113000008440020E90000000D240000DB24000067
S1130010DB240000DB240000DB240000DB240000E0
S1130020000000000000000000000000DB240000CD
S1130030DB24000000000000C51A0000391B00008A
S11300400000000000000000000000005521000036
S1130050000000000000000000000000000000009C
S1130060000000000000000000000000000000008C
S1130070000000000000000000000000000000007C
S11300800000000000000000000000000D1E000041
S1130090000000000000000000000000000000005C
S10F00A000000000000000000920000027
S11300AC01000000DC00000002000000BC000000A5
S11300BC004000200040002000001040000002031B
S11300CC0040002004400020400400000000010314
S11300DC1C440020F85800200000000310B500F068
S11300EC2FF800F07BFEFEE7F8B5060000240C2781
S11300FC124D2B68A34204D80024AB68A3420ED83B
S113010CF8BD3A0062436B689B185A7AB24204D128
S113011C05CB0021121A02F033FA0134E8E7EB683C
S113012C22019B185A7BB24205D118685A68996807
S113013C121A02F02DFA0134DFE7C046AC000000BD
S113014C70B50025154B164A00209A6000F0D2FCBD
S113015C02F0BCF8012000F0CDFC0020FFF7C4FF36
S113016C02F02AF802F01AF9022000F0C3FC012074
S113017CFFF7BAFF0B4C0C4BE41AA410A54205DB99
S113018C02F0A4F9002002F00AF970BD064AAB0093
S113019C9B181B6898470135F0E7C04600ED00E05A
S10F01AC000000008428000080280000EF
S1070400FFFFFFFFF8
S1070404F7AFC1FF8A
S1070440F0F0F0F0F4
S113044444F2040044F20403C2F20000C2F20003C2
S113045410B5834205D040F20003C0F2000303B197
S1130464984710BD44F2040044F20403C2F20000AD
S1130474C2F200031B1A9A10D90F8918491010B537
S113048429B140F20003C0F2000303B1984710BD40
S113049410B544F21C44C2F20004237873B9FFF784
S11304A4CFFF40F20003C0F200032BB140F2084036
S11304B4C0F2000000E000BF0123237010BDC04659
S11304C440F20003C0F2000310B54BB144F22041E2
S11304D440F20840C2F20001C0F2000000E000BF94
S11304E4FFF7C0FF10BDC0460369C268934201D838
S11304F481685B18013B981A7047F7B50500C46816
S1130504836840681F1B00190E000193A4189742C6
S113051407D83A0002F040F8019B6868E41A220004
S1130524F11902F039F8BFF35F8FEC60F7BD0023D3
S1130534F7B506001700C568019100933369B468E0
S11305449D4221D2013B5B1B641BBC4200D93C008D
S11305549C4200D91C00706822004019019902F0E1
S11305641BF8009B2D191B190093019B3F1B1B199E
S11305740193B368AB4200D10025BFF35F8FF560EC
S1130584002FDBD10098FEBD1B19DBE710B5154C19
S1130594A8220021200001F0F7FF0323124A23615B
S11305A46361124BA261E36141F2000323620023FD
S11305B4A3626362E36222660D4A62664022A26613
S11305C42367E3666367BFF35F8F0F33180009493A
S11305D4C21A5918097849B2A154013BF7D2BFF39E
S11305E45F8F10BD78540020AE25000078440020AD
S11305F4384400206F260000F0B5254B85B01B78E5
S1130604070014000191532B01D0FFF7BFFF1823F7
S11306147B431F4A00269B18DA6E1D6F0292954293
S11306241AD99B6E26005B1B9C4200D91E0018231A
S11306347B43174A01989B18596E32004919039356
S113064401F0AAFF019BAD199B190193039BA41B01
S11306549B6EAB4200D10025029B5B1B9C4200D9DC
S11306641C005CB118237B43094A01989B18596EFA
S11306742200491901F090FF36192D1926B11823C7
S11306847B43034A9B181D67300005B0F0BDC04688
S11306947854002010B50B00EFF31084012181F38A
S11306A410881900FFF7A8FF84F3108810BD000018
S11306B4182370B5451C5D4343431400114A0E00CE
S11306C49B18DB6AAD18012B0AD0022B14D023B972
S11306D42800FFF709FF844208D90024200070BDD4
S11306E42800FFF701FF844200D9040022003100EE
S11306F42800FFF702FFF1E722002800FFF717FFA5
S11307040400EBE778540020F8B50B4B04001B7885
S11307140E001700532B01D0FFF738FFEFF31085B9
S1130724012181F310883A0031002000FFF7C0FF53
S113073485F31088F8BDC0467854002013B56B4681
S1130744DC1D012221000020FFF7A4FF012801D1B0
S1130754207816BD01204042FBE7000010B5064C8A
S11307642378532B01D0FFF711FFE36E206FC01AD7
S1130774431E984110BDC0467854002010B58268C9
S113078404004068531C834205D820688154A36044
S1130794E3680133E360A26863689A4209D121687B
S11307A42069FFF7B1FFA368984203D001235B4299
S11307B4E36010BD0023A360FBE70000F0B515005F
S11307C40400012285B000930A9F0B9B0191A94266
S11307D417D2009902928A4200D20291012219008E
S11307E411400391134201D17FB90027E368012624
S11307F4002B3BDB009B012B1CD9013B00936E4374
S1130804F8E7B1FBF5F10132E1E720269B0703D5B4
S1130814009B103603B1103E029BBB42E6D231006A
S11308242000FFF7ABFFE368013F002BDEDB002F62
S1130834F2D1DAE7019BB3FBF6F39D42DFD9019BC6
S11308443200B3FBF6F35A43019920008A1A019249
S11308540E4AD156FFF792FFE368002B03DBB6FB85
S1130864F5F3AE4204D2039B03B15FB905B0F0BD06
S11308741E00E4E720212000FFF780FFE368013F26
S1130884002BF3DB029B9F42F4D8EFE780260000A1
S1130894F0B59DB00CAB07934023089300230D00DF
S11308A41700059009930B900A93002169560135AA
S11308B431B90A9D002D00DD08E10A981DB0F0BD90
S11308C4252900D0B2E0002604201D390023EB566C
S11308D46A1C2D2B17D012DC232B1AD02B2B16D0E9
S11308E400240A210023EB566A1C18003038C0B2D5
S11308F4092810D84C43303C15001C19F2E7302B5E
S1130904EED1022300E001231E431500DEE7064373
S1130914FBE70E43F9E7002102912E2B10D11500B9
S11309240A200022AA56691C1300303BDBB2092BAF
S113093406D8029B0D004343303BD3180293F0E7DF
S11309440021042369560A0001359A43682A02D116
S113095400216956F7E7782909DC6F290CDC63293F
S11309645FD018DC252961D0582900D18BE00A9B7B
S1130974002B00DB99E79CE7703908000829F6D8B6
S113098401F0ACFD9C00F5FFF5FF8900F5FF78004C
S1130994F5FFF5FF81006429E9D13B680A211A1D9A
S11309A43A601B681A000393DB17D2185A400123D8
S11309B4092A3FDC029A04929A4200D204932CB18D
S11309C4039B002B01DB730700D5013CB30701D55E
S11309D4029B1BB1F30701D484BB00240A9B002BA4
S11309E4C5DB039B002B35DA2D215B42039307A857
S11309F4FFF7C4FE0A9B002BB9DB03233340022B0D
S1130A0403D1029B0BB94CBB00240A9B002BAEDB25
S1130A140A22029B03990196009407A8FFF7CEFECD
S1130A24A5E700213B681A1D3A60595607A8FFF749
S1130A34A5FE9CE792FBF1F20133B9E7049B9C42C7
S1130A44CCD9202107A8FFF799FE0A9B013C002B6F
S1130A54C2DAC3E77307D0D52B21C8E7049B9C42B1
S1130A64D3D9302107A8FFF789FE0A9B013C002B48
S1130A74C9DACAE70A2239680B1D3B60029B019656
S1130A8400940968C9E739680B1D3B60029B019611
S1130A9400941022F5E73B681A1D3A601C6804B9F7
S1130AA40F4C002161560134002900D15FE707A8E7
S1130AB4FFF764FE0A9B002BF3DA58E739680B1D31
S1130AC43B600023019308330093E2E7099C24B1BB
S1130AD4220005980CA9FFF717FE64190A94ECE6A2
S1130AE4B72500000EB403B503AB02CB01AA0193EE
S1130AF4FFF7CEFE02B008BC03B0184710B518B90E
S1130B040122054B1A7010BD0228FCD10349044884
S1130B1401F05AFAF7E7C04690C07E40C8260000A8
S1130B244855002010B5012000F084FBFBE70000C9
S1130B340279014B1A70704721550020024A137838
S1130B44013313707047C04620550020F0B54E4958
S1130B5489B04E4801F0D6FA28B120214C4B4D4AB5
S1130B644D4801F021FC494801F0EAFA050018B1A6
S1130B742421474B474AF3E72E001E24474948489B
S1130B8401F076F8464801F043F8454805A901F018
S1130B9457F8079B01950393642000F04BFB4149EC
S1130BA40020FFF79FFF22003F490020FFF79AFF30
S1130BB4019A3E490020FFF795FF32003C4900208A
S1130BC4FFF790FF2A003B490020FFF78BFF3A4BC5
S1130BD43A491A780020FFF785FFFFF7BFFD002884
S1130BE4DAD0FFF7ABFD642832D014DC2D282BD0E7
S1130BF4622837D02B28CFD15A2C01D80534E4B23B
S1130C046423039901226143B1FBF3F1244889B2BB
S1130C1401F00EF8C0E76F282DD07328BCD1284BFF
S1130C2400229F681B6840F2021102930298FB6938
S1130C3498470121322001F0BDFB012240F2021148
S1130C44FB6902989847A7E7092CD9D9053CD6E74C
S1130C5401230A21019A1A485A4083680192DB69E4
S1130C640068EFE7012316485E408368320040F2CF
S1130C740D21DB69F4E7012311485D4083682A00F0
S1130C8440F20111DB69EBE7B02600005055002067
S1130C94BE25000090260000D1250000A4270000F2
S1130CA434560020EB250000F0250000FC2500004C
S1130CB408260000142600002055002020260000E9
S1130CC4A426000010B524220449054800F01EFDA2
S1130CD418B10021024800F03AF810BD2C26000097
S1130CE42455002010B5FFF7EDFF10BD10B500F03A
S1130CF451F8FFF717FF10BD00B50F4A89B0136808
S1130D040E4901331360B0230693AF3B0593049358
S1130D140393029340F200430193094B094A00935D
S1130D240948002300F0A6FD18B10021064800F08C
S1130D340EF809B000BDC046305600203C26000021
S1130D44F8580020F10C000060550020704700BEE4
S1130D547047000010B500240A4B01221C600A4BA2
S1130D640A491C700A481C2300F016FD18B121001E
S1130D740748FFF7ECFF00F041F8FFF7BDFFFFF76A
S1130D84E5FF10BD305600202C5600204D260000EF
S1130D9410560020012110B50F48494200F044FDCB
S1130DA418B100210C48FFF7D2FF0C4B1A7842B952
S1130DB401321A70FFF796FF094C2368013B236044
S1130DC403B910BD044800F047FD0028F5D0002104
S1130DD40148FFF7BCFFF0E7105600202C56002012
S1130DE43056002010B500F061F8002010BD10B595
S1130DF4FFF7D0FFFFF7AAFE10BD000000B50F4AAD
S1130E0489B013680E4901331360B0230693AF3BD2
S1130E14059304930393029340F200430193094B13
S1130E24094A00930948002300F024FD18B1002165
S1130E340648FFF78CFF09B000BDC04630560020B9
S1130E4461260000F85C0020F30D000048560020E1
S1130E5470B504000D002422002101F095FB6560A7
S1130E64EFF3108572B60B4B0B4923600B680B4AE6
S1130E7443B91460A461E46101330B6085F3108801
S1130E84002070BD1268D069D4618461E061A261FC
S1130E94F2E7C0464E445644FC5600200057002056
S1130EA410B500F095F900F0D9FB10BD70B50C4CE9
S1130EB40C4B22680C4D9A4208D0256000F066FD64
S1130EC4FFF7EEFF094A136801331360084B2560EA
S1130ED41868FFF73FFF0023236000F0E3FD70BDB3
S1130EE400400020F1F0F0F0F0F0F0F0145700208E
S1130EF4F856002010B5EFF3108472B61A4B826EC4
S1130F049A422DD10300AC331B688B4228D1C36EA3
S1130F1433B3164A1968914222D11A6902B30022E2
S1130F2482661A69013A1A610AB9DA6006E0416F05
S1130F34026F51670A67D9688142F6D0036B062BA6
S1130F440ED103000D220833DA67094A136801330A
S1130F54136084F3108800F0CDF9EFF3108472B6B3
S1130F6484F3108810BDC046F90E0000414D45536A
S1130F741457002070B504000E00150000211C2233
S1130F8401F002FB6660A560EFF3108572B60B4BAB
S1130F940B4923600B680B4A43B914606461A46170
S1130FA401330B6085F31088002070BD12689069CA
S1130FB494614461A0616261F2E7C046414D4553C6
S1130FC4045700200857002070B5EFF3108372B65D
S1130FD482682AB1013A826083F31088002070BDCC
S1130FE411B1184A14681CB183F310880D20F6E774
S1130FF4154C164D24682600A566E066AC363568A3
S1131004013535600569ADB9C46024676467056951
S1131014013505610620E164116820630538091867
S1131024A063116083F310882000083400F0D4F91D
S1131034E06FD4E7C56825676E6F666734676C67CD
S1131044E5E7C04614570020AC570020F90E000011
S1131054030070B5EFF3108172B6026932B9826885
S11310640132826081F31088002070BDC068541E70
S1131074012A0FD1DC6002001C610023083283665C
S1131084D367074A13680133136081F3108800F0AF
S113109431F9E9E7026FDA60456F55672A67EAE7D1
S11310A414570020F7B5040017000191099AEF21A1
S11310B408981E000A9D01F067FAB022002120005E
S11310C401F062FA019B6764A362089BA664E3606F
S11310D4099BE5626361230094331D600C9B202209
S11310E4A361E36123009C331A60099B5F1E089B80
S11310F4DE190B9B26619D4203D123009833E563DB
S11311041D6003232363294B200029496365A465D7
S113111400F014FDEFF3108272B62000254B26492B
S113112423600B68254D88302BBB2C60046044601D
S113113401330B60224B1968013119600D9901299F
S113114426D1EFF3058100261E4B35001B680B43A3
S11311541D498B4206D91D4B1D682E0015B1EB6A3F
S1131164EE6BEB6382F31088200000F0C3F805B142
S1131174EE630020FEBD2D682F008C373E683C6072
S1131184370088373C6027008C373E600560CFE722
S113119482F31088EFF3108172B61A68013A1A6068
S11311A481F3108800F078F8E3E7C04639150000AD
S11311B4F111000044524854A0570020A4570020C1
S11311C41457002000400020EFF0F0F0A85700204E
S11311D42022044B1A60C723034A5B0411680B439F
S11311E413607047985700200C57002010B50E4B1D
S11311F41C68636CA06C98470C4B1B680BB12000F3
S11312049847EFF3108172B601232363A363002389
S1131214074AE36413680133136081F310882000E0
S113122400F0DAF810BDC046AC5700201057002077
S11312341457002070B5EFF3108272B6134B1B6879
S11312441BB982F31088132070BDEFF30584104991
S1131254096821430029F4D110B982F31088F3E713
S11312640C490D68002DECD104241C63033C9C63DD
S11312741C000834E567D86408680130086082F308
S11312841088180000F0A8F8E06FDDE7AC570020E0
S113129400400020145700200A4B1B688BB90A4BEA
S11312A41A680A4B1B689A420BD08022084B5205D9
S11312B45A60EFF3058323B9EFF3108362B683F323
S11312C41088704714570020AC570020A8570020FA
S11312D400ED00E08022064B52055A60EFF30583CB
S11312E423B9EFF3108362B683F310887047C046C2
S11312F400ED00E0F8B50400EFF3108572B6436E18
S113130473B34C3000F0ECF9254AA06B13682549FB
S1131314013B1360236B00283AD1CBB1636B002BE0
S113132431D12363E36A204E9F00B85928BBBC51D2
S113133401269E401D4F246238686462304338603D
S11313441B4806689E4203D90360086850B90C60C0
S1131354184B1B6885F310880968994208D10BE07F
S1131364C364D1E7C06B9842F2D90C6085F310884A
S113137413680BB9FFF7AEFFF8BD436A1C624462FD
S113138463622062E4E70023636303332363DFE7D8
S1131394013B012BDCD9636B002BF4D1A363F5E788
S11313A414570020A8570020185700209C570020E9
S11313B498570020AC5700208022064B52055A60EF
S11313C4EFF3058323B9EFF3108362B683F3108834
S11313D47047C04600ED00E0F7B5374B04001E68C3
S11313E4EFF3108772B686420AD1F36C013B0333E0
S11313F403D830004C3000F049F9E2692F4B1A60ED
S11314042F4DA26B2B68013B2B60012A4DD140F276
S1131414000C6346A363E36A01930199236A890078
S11314249C4213D0626A5A621362264A5258A242F8
S113143401D1244A5350244A1368A34235D1234B7F
S113144420491B689B00CB5813600FE060461D4B7A
S113145458501100019B99401D4B1868884318602B
S113146458B92022194B1A60174B186087F3108857
S11314742B680BB9FFF7A0FFF7BD1F2143080191A7
S11314844BB9019B9840202310B101F031F8C3B249
S11314940E4A1360CFE741001800104001430800CE
S11314A401995B0801390191EAE787F31088064B37
S11314B41B68B342DCD1DFE7AC570020B4570020EB
S11314C41457002018570020A857002098570020CC
S11314D49C57002010B5114B1B68EFF3108472B6AF
S11314E400210F4A1160ABB11A6B9AB9DA690D493C
S11314F4186A9A610A6098420CD0DA6ADB6B9A42E1
S113150408D1094B09491B6892009B0050505A5852
S1131514074B1A6084F3108810BDC046AC570020F2
S113152450580020B4570020985700201857002022
S1131534A857002010B5EFF3108272B6036B042B86
S113154408D109490B6801330B6082F31088FFF753
S1131554D1FE10BD0100AC31836E096882F310889A
S1131564002BF6D09847F4E714570020F0B585B063
S1131574EFF3108572B6334F3B68019323BB324EAD
S113158433680BB301233B60304B19680A68029239
S11315940AB102A8906100220A602D491A680968F8
S11315A404321A608A4202D12A4A12681A60002359
S11315B4336085F31088EFF3108572B6029C3CB94E
S11315C43368002BE0D13B6085F3108805B0F0BD8F
S11315D40022236903929C4224D062695A611361F4
S11315E402AA9A6102932368202B1DD9203B23600D
S11315F403ABA361002324610394174A146085F3A5
S113160410880BB101989847EFF3108572B6002245
S1131614114B1A60039BA342D0D12000A26100F0B5
S113162435F8CBE70023DDE7E268A368019262683A
S1131634226022B103AAA26124610394DDE7A261BA
S1131644DBE7C046B8570020C0570020C457002029
S1131654C8570020CC570020BC570020054B064A2D
S11316641360064A1360064B064A13600022064BB5
S11316741A607047D0570020CC570020C45700206C
S113168450580020C8570020B857002003685A1E39
S1131694033217D88269AAB9202B00D92023013B2D
S11316A49A000C4B1B689B180B4A12689A4203D885
S11316B49B1A0A4A1268D3181A6822B90061406155
S11316C41860836170475169086150610261416126
S11316D4F7E7C046C4570020C8570020CC57002061
S11316E483694BB10269904207D11A68824201D1DD
S11316F400221A60002383617047416951610A61C1
S113170419688142F6D19361F3E7000070B50400CF
S11317140E0008B9062070BD242AFBD1EFF3108112
S113172472B6184B1A6801321A6081F31088164A8B
S11317341568164A11680022914201D0A5421ED1AF
S1131744EFF3108172B61A68013A1A6081F31088B3
S1131754FFF7A2FDA542DDD0EFF305810C4A13681F
S11317640B433BB1EFF3058113680A4A13200B437F
S11317749342D0D931002000FFF76AFBCBE7AD696F
S11317840132D9E71457002000570020FC560020EA
S113179400400020EFF0F0F0F8B504000D0016004E
S11317A408B90C20F8BD1C2BFBD1EFF3108172B6E1
S11317B4184B1A6801321A6081F31088164A1768A4
S11317C4164A11680022914201D0A7421FD1EFF3B7
S11317D4108172B61A68013A1A6081F31088FFF70F
S11317E45BFDA742DDD0EFF305810D4A13680B437B
S11317F43BB1EFF3058113680A4A13200B43934268
S1131804D0D9320029002000FFF7B4FBCAE77F696E
S11318140132D8E714570020085700200457002049
S113182400400020EFF0F0F0030010B50C2073B179
S1131834074A1C6894420AD131B1EFF30580054A82
S113184412680243042012B91800FFF7BDFB10BD4F
S1131854414D4553004000200C2310B530B1044AD7
S11318640168914202D1FFF7F3FB0300180010BD95
S1131874414D4553F0B58DB00600129D0A9108926E
S11318840B9310B90E200DB0F0BD189BB02BF9D1F9
S1131894EFF3108172B6384B1A6801321A6081F37F
S11318A41088364A40F2010C1768139A013AAA18B0
S11318B40792334A1268099200221100099890424F
S11318C401D0B74241D1EFF3108172B61A68013ADC
S11318D41A6081F31088FFF7DFFCB742D2D00320EB
S11318E4002DD0D0089B002BCDD0139B0230C72BE6
S11318F4C9D9149B0A301F2BC5D8159A09309342B1
S1131904C1D3179B0838012BBDD8EFF305811D4AB9
S113191413680B433BB1EFF3058113681A4A0B4375
S113192403309342AFD9179B30000593169B089A52
S11319340493159B0A990393149B00950293139B98
S113194401930B9BFFF7AEFB9DE70129BBD0F8681D
S1131954A84204D83C69AC4201D961460025079CDD
S1131964A04204D83869A04201D9614600258837C9
S11319743F680132A2E7C04614570020A457002050
S1131984A057002000400020EFF0F0F010B572B62C
S11319940020184B80211860174B49041A68174B10
S11319A41A60174B1A6840F2E833B2FBF3F2013AB7
S11319B4144B8A420BD2C024134924064A601A6A7F
S11319C41202120A22431A62072288600A60C021A2
S11319D41A6A09061202120A1A62DA691202120A4D
S11319E40A43DA61196A094A1140C02212040A43FB
S11319F41A6210BDF856002000000000B057002001
S1131A04F458002000ED00E010E000E0FFFF00FFC8
S1131A14F0B540F6600140F6FE041A4D1A4E72B653
S1131A242868306040BB194B194A585A80B2108058
S1131A34108800B2002809DA185B164F80B23860A7
S1131A441548185310884004400C5852BFF34F8F64
S1131A5430BFBFF36F8F108800B2002808DA1288F1
S1131A6492B25A520B4A10680C4A024392B21A5365
S1131A7462B6BFF36F8FD2E78022094B12055A6016
S1131A8462B6F0BDA8570020AC57002000E0014026
S1131A945C5800205858002002A5FFFF00A5FFFF52
S1131AA400ED00E00022044B1A6062B68022034B6E
S1131AB452055A60FEE7C0461457002000ED00E0CA
S1131AC418480168002927D0EFF30983103BF0C3B9
S1131AD444464D4656465F46203BF0C3103B8B605C
S1131AE4114C236813B18B61002323600F4E3668B5
S1131AF4A6B10660706801307060B0692060B36894
S1131B040B498E46F0CBBB46B246A946A046F0CB61
S1131B1483F309887047FEE7034CE7E7FFF778FF90
S1131B240646E7E7AC570020B4570020A857002026
S1131B34FDFFFFFF10B500F019F810BD072270B5C2
S1131B44046903009443200040380D009860002188
S1131B542D3200F019FD230001220C3B52425D603A
S1131B641A608023043C5B04236070BD10B51D4AD5
S1131B741D4C1368013313601C4A136823B1013BE1
S1131B8413600BB901332360194A1A49136818689E
S1131B94A0B101230B6022680B68CAB9CBB9164BF8
S1131BA41B6853B1154A1268934206D0144B1B6840
S1131BB41BB98022134B52055A6010BD12480433DA
S1131BC4006813608342E6D1104B1B681360E2E79C
S1131BD423B1FFF7CBFC2368002BE0D0FFF77AFC9A
S1131BE4DDE7C0465458002050580020B457002064
S1131BF4C4570020C0570020A8570020AC57002029
S1131C041457002000ED00E0C8570020CC570020F2
S1131C14436800221978054B062904D19A8F817AE6
S1131C240A439A87027A00209A867047FE260A405D
S1131C34024B89B252000020D152704700260A4058
S1131C444368094A1B7C5B009B5A9AB202338B603B
S1131C5443681B78062B01D101328A600020034BB0
S1131C641B6808704B60704700260A40F458002033
S1131C7440F2010CF0B541604B690D00C3608B69FF
S1131C846246036100234F4E040033872B7CC969E9
S1131C949A4085B04272EFF310808CF31088674643
S1131CA4494AD368BB43D360D36880F3108840F6B1
S1131CB401020B789B031A432B7C92B28833BB40FA
S1131CC4424FDA532B786968063B584243412A7CD5
S1131CD402395B189BB25200D3532B7C4BB140F2B4
S1131CE43E12617ABB5A8B43BB52F38F627A93439D
S1131CF4F3871220738F627A93437387B38F627A64
S1131D049343B3872856002803DB2200697C00F040
S1131D14D9FBEB69019304330093019B20330393B0
S1131D24009B1A68002A3FD001231178274F8B4067
S1131D34DBB29C462B78063B584243410198083356
S1131D4400788003034340F200409BB203434800FD
S1131D54C71902971B4FC0194382538802981B4F1B
S1131D64038040F23E103B5A67463B43174F3B52B5
S1131D746046F38F834350798840034360469BB2A3
S1131D84F387738F834310798840614603430720A4
S1131D949BB27387A37A0B43A372105691790028DC
S1131DA402DB220000F08EFB009B04330093009AB4
S1131DB4039B9342B4D10020637AA27A134323721F
S1131DC405B0F0BDFE260A40FC6F044000260A401C
S1131DD4F0B5040085B0EFF30383103B094A5BB20A
S1131DE49B009F58FD6855B10822002102A800F009
S1131DF4CBFB3B6901AE300034710193A84705B0B5
S1131E04F0BDC0468858002010B50420FFF7E0FF59
S1131E1410BD0000EFF31080012383F31088064BF8
S1131E24196819B9054A1170403111701A680132E0
S1131E341A6080F3108870478458002040030A40D5
S1131E44EFF31081012383F31088074B1A6812B14E
S1131E541A68013A1A601A681AB9044B1A70803263
S1131E641A7081F3108870478458002040030A4094
S1131E7403000020186070470B0A1B01C9B25B18E9
S1131E8403495B005B5A00209B07DB0F1370704708
S1131E9400020A40034B090A4901C918CB880020EF
S1131EA41380704700000A40180010409343090A45
S1131EB4034A490189180B81488100207047C046B0
S1131EC400000A400123C8B2834000209BB20AB92F
S1131ED418001300034A090A4901891808810020DB
S1131EE44B81704700000A4010B51C000548090ADC
S1131EF4490109184888144020439343984348806F
S1131F04002010BD00000A4006207047180010404D
S1131F149343090A034A49018918C88100208B8123
S1131F247047C04600000A400C480B0A5B0110B518
S1131F341B1850425041C9B28A4088409C8912B24D
S1131F4494439C81D98981430A4392B2DA819A8960
S1131F54024392B200209A8110BDC04600000A4098
S1131F6470B50C001500FFF755FF230A1B01E4B2FA
S1131F74044A1B19ADB25B009D52FFF761FF0020B8
S1131F8470BDC04600020A400620704770B50400C4
S1131F94FFF740FF0022FF200A4D2388934202D812
S1131FA4FFF74EFF70BD6168D300C9188E880968B5
S1131FB4330A1B0106409B1989B25B000132595351
S1131FC492B2EAE700020A4010B5034B036008002A
S1131FD4FFF7DCFF002010BD54524F5010B5080029
S1131FE4FFF7D4FF002010BD1FB503009A6901A8B0
S1131FF442601A6A0172019200221A61DB699847ED
S113200405B000BDF7B5EFF30383103B3A4A3B4FE9
S11320145BB29B009C587B7801261A00DDB23240E7
S1132024334212D0A31DDA7F72B100221021DA7771
S1132034334A200053788B435370631DD97F4B1E5E
S113204499410231FFF7D0FFF7BDAB0738D5EB0652
S113205430D50823A2612B40621DD377A21D0192BF
S11320644BB904212000FFF7BFFF019BDE77244A0C
S11320743023517821E024232B40242B20D0052124
S11320842000FFF7B1FFA31DDE77661DF17F09B1C0
S11320946D07ECD5626923699A4205D14B1E9941B7
S11320A420000631FFF7A0FF236973B9CC22144B37
S11320B45A70C9E74023124A51780B435370C3E75B
S11320C4A31DDB7F002BBFD0DFE76269E3689B18A5
S11320D4F27F42B11B783B70636901336361A36986
S11320E40133A361B0E73A781A702023044A517883
S11320F40B435370F0E7C0468858002000300A4070
S1132104FF300A40022310B5CB56040003718B68D8
S1132114094A8360CB68C3600B784371C878D05490
S113212404202056002803DB2200497800F098F9A3
S1132134024B0020236010BD006000405543490059
S113214410B5007940B200F0B5F9002010BD0000CC
S113215407B5EFF30383103B064A5BB29B009B581D
S11321643BB19A682AB15979DB68684601910093B6
S1132174904707BD8858002040F20A2230B50F4B1F
S1132184995C8909814218D040F20B2401211D5D18
S113219429431955022805D0995C8909022901D0DB
S11321A48021995440F20A2240F20B218001C0B2EA
S11321B4985401205A5C82435A5430BD00C07E4076
S11321C440F61A0210B5154B15499C5C154AD068A3
S11321D4E040086040F62300185C800708D540F608
S11321E422001B5C13B193680B6010BD1369FBE7F9
S11321F440F62100185C8007F7D440F62000185CF0
S1132204800705D540F61900185C5368C340EBE712
S113221440F61800185C1368F8E7C04600E0014073
S1132224F458002008440020F8B540F6230501279B
S1132234264C665DBE436655665DB607F70F002EF1
S1132244FADB0126B04224D840F62105675DB74382
S11322546755665DB607FCD4012640F6200588B9A7
S1132264605DB0436055605D8007FCD440F618009F
S1132274215440F61901625440F61A02A354FFF79C
S11322849FFFF8BD615D0E436655615D8907FCD50A
S1132294EFE7032808D140F62101605C3043605421
S11322A4605C8007FCD5E4E740F6220102280AD1E9
S11322B466540121605D014340F623006155215CAD
S11322C48907FCD5D5E76754F3E7C04600E001402D
S11322D47047000040F6FE0370B5284A284C29498B
S11322E4E252294B294AD9601A60294A5A6048F2B1
S11322F400029A601A61FFF763FF40F600035B2251
S113230440F62401E254635C93B1224B2248DA6818
S11323140240DA60DA687F252048C27A2A40C27211
S11323248022D86812040243DA60DB680023635411
S113233440F611030722E254053BE25CC2B10022D9
S1132344E2540320FFF718FF002240F60803E25486
S113235440F61202A35CDB07FCD500231A00190023
S11323641800FFF761FF40F6FE030D4AE25270BD08
S113237440F2E830FFF7ACFFE3E7C04603A5FFFFF4
S113238400E00140002D3101084400200048E80128
S113239400093D00FC6F0440FFFF7FFF002C0A404E
S11323A400A5FFFF7047704700BEFEE70138002810
S11323B4FCD1704770B54143114B124D1B680C009E
S11323C4B5FBF3F5080040F2E8320023002100F0E5
S11323D4ADF831B9B0FBF5F0800808B1FFF7E6FFBA
S11323E470BDAD00B4FBF5F040F2E83200230021E7
S11323F400F09CF80029F0D001204042EEE7C046EA
S1132404F458002000CA9A3BF8B540F24013002463
S113241401270A4E0A4A758CD35A1D402B00E34007
S11324243B4206D0074AA3009B181B680BB1E0B2D9
S113243498470134092CF1D17586F8BDFE6000403B
S113244400600040605800201F22430910401E3AD7
S11324548240024960339B005A50704700E100E017
S1132464F7B5FF27019283080A4A03269B009B18A9
S11324743A0040F200350640F6008901B240394082
S1132484B1405C59800094430C435C51019A024B63
S11324941A50F7BD00E100E0885800201F224309C8
S11324A410401E3A824002499B005A507047C0466D
S11324B400E100E010B50400FFF7C6FF2000FFF7B9
S11324C4EDFF10BD10B50400FFF7CAFF2000FFF7AD
S11324D4F1FF10BD704700BE7047000003B471469D
S11324E4490840004900095E49008E4403BC704712
S11324F41C2101231B04984201D3000C10391B0A2C
S1132504984201D3000A08391B09984201D30009EF
S1132514043902A2105C40187047C0460403020246
S1132524010101010000000000000000F0B54FF6B5
S1132534FF750400CE462C40474615400E00290082
S1132544994680B5130C0700000C61434543584376
S113255463430C0C5B19E4188C46A54203D980230D
S11325645B0298464044230C61461B184FF6FF70E7
S11325740840494656437943240489192018C91844
S1132584C0BCB946B046F0BD03008218934200D1E2
S1132594704719700133F9E7002310B59A4200D14A
S11325A410BDCC5CC4540133F8E75465726D696E94
S11325B4616C00284E554C4C29004653505F5355CA
S11325C44343455353203D3D20657272002E2E2F04
S11325D47372632F7379735F7468726561645F6582
S11325E46E7472792E63001B5B324A0050574D3A65
S11325F42020202025640A004449523A2020202027
S113260425640A004252414B453A202025640A00BD
S11326144452564F46463A2025640A0046474F55CD
S1132624543A202025640A004E6577204576656E69
S11326347420466C6167730049324320536C61769D
S113264465205468726561640046535020436F6D7D
S11326546D6F6E20496E69742053656D00537973F0
S113266474656D20546872656164000000000000A4
S113267400545452205245474745530030313233B5
S11326843435363738394142434445467379735FA8
S11326947468726561645F656E7472790000000029
S11326A448550020C8260000F42700000102030254
S11326B400000000410B000000000000C4260000DC
S11326C4000000001A000000D426000000000000EE
S11326D405000000080000000500000009000000D7
S11326E4050000000A000000050000000B000000C3
S11326F4008000000C000000008000000D000000B9
S1132704008000000E000000100000000001000022
S113271404000000010100000500000002010000A3
S1132724040000000301000000010000080100008F
S11327340401000009010000040100000A01000072
S1132744050000000C010000000000000602000067
S11327540002000007020000040200000802000056
S1132764004000000C020000050000000D020000FF
S1132774000000000E020000000000000F02000030
S113278400010000000300001040000007040000E2
S1132794000100000D090000000100000E09000002
S11327A406000000800C000000000000000000008F
S11327B400021300350B000000000000C4270000D1
S11327C400000000E4270000EC27000000000000E3
S11327D400000000000000000000000000000000F1
S11327E40100C0030000FFDF020040060000FFDF19
S11327F4CD1F0000751E0000E11F0000651F0000CE
S11328040D1F00002D1F00007D1E0000C91E0000C6
S1132814ED1E00008D1F0000111F0000991E000012
S1132824AD1E00004275696C742077697468205287
S1132834656E6573617320416476616E63656420BB
S1132844466C657869626C6520536F66747761724F
S113285465205061636B6167652076657273696F87
S11328646E20362E302E3000362E302E30000000EE
S10728740000000656
S1072878F8B5C046A5
S107287CF8B5C046A1
S1072880C504000087
S107288495040000B3
S90300E913
